{
  "_format": "hh-sol-artifact-1",
  "contractName": "CertificateRegistry",
  "sourceName": "contracts/CertificateRegistry.sol",
  "abi": [
    {
      "inputs": [],
      "stateMutability": "nonpayable",
      "type": "constructor"
    },
    {
      "anonymous": false,
      "inputs": [
        {
          "indexed": true,
          "internalType": "bytes32",
          "name": "certificateID",
          "type": "bytes32"
        },
        {
          "indexed": true,
          "internalType": "address",
          "name": "issuerAddress",
          "type": "address"
        },
        {
          "indexed": true,
          "internalType": "address",
          "name": "recipientAddress",
          "type": "address"
        },
        {
          "indexed": false,
          "internalType": "string",
          "name": "recipientName",
          "type": "string"
        },
        {
          "indexed": false,
          "internalType": "string",
          "name": "issuer",
          "type": "string"
        },
        {
          "indexed": false,
          "internalType": "string",
          "name": "courseName",
          "type": "string"
        },
        {
          "indexed": false,
          "internalType": "uint256",
          "name": "issueDate",
          "type": "uint256"
        },
        {
          "indexed": false,
          "internalType": "uint256",
          "name": "expiryDate",
          "type": "uint256"
        },
        {
          "indexed": false,
          "internalType": "bool",
          "name": "isValid",
          "type": "bool"
        }
      ],
      "name": "CertificateIssued",
      "type": "event"
    },
    {
      "anonymous": false,
      "inputs": [
        {
          "indexed": true,
          "internalType": "bytes32",
          "name": "certID",
          "type": "bytes32"
        }
      ],
      "name": "CertificateRevoked",
      "type": "event"
    },
    {
      "anonymous": false,
      "inputs": [
        {
          "indexed": true,
          "internalType": "address",
          "name": "issuer",
          "type": "address"
        }
      ],
      "name": "IssuerAdded",
      "type": "event"
    },
    {
      "anonymous": false,
      "inputs": [
        {
          "indexed": true,
          "internalType": "address",
          "name": "issuer",
          "type": "address"
        }
      ],
      "name": "IssuerRemoved",
      "type": "event"
    },
    {
      "inputs": [
        {
          "internalType": "address",
          "name": "issuer",
          "type": "address"
        }
      ],
      "name": "addIssuer",
      "outputs": [],
      "stateMutability": "nonpayable",
      "type": "function"
    },
    {
      "inputs": [
        {
          "internalType": "address",
          "name": "",
          "type": "address"
        }
      ],
      "name": "authorizedIssuers",
      "outputs": [
        {
          "internalType": "bool",
          "name": "",
          "type": "bool"
        }
      ],
      "stateMutability": "view",
      "type": "function"
    },
    {
      "inputs": [
        {
          "internalType": "bytes32",
          "name": "",
          "type": "bytes32"
        }
      ],
      "name": "certificates",
      "outputs": [
        {
          "internalType": "bytes32",
          "name": "certificateID",
          "type": "bytes32"
        },
        {
          "internalType": "address",
          "name": "issuerAddress",
          "type": "address"
        },
        {
          "internalType": "address",
          "name": "recipientAddress",
          "type": "address"
        },
        {
          "internalType": "string",
          "name": "recipientName",
          "type": "string"
        },
        {
          "internalType": "string",
          "name": "issuer",
          "type": "string"
        },
        {
          "internalType": "string",
          "name": "courseName",
          "type": "string"
        },
        {
          "internalType": "uint256",
          "name": "issueDate",
          "type": "uint256"
        },
        {
          "internalType": "uint256",
          "name": "expiryDate",
          "type": "uint256"
        },
        {
          "internalType": "bool",
          "name": "isValid",
          "type": "bool"
        }
      ],
      "stateMutability": "view",
      "type": "function"
    },
    {
      "inputs": [
        {
          "internalType": "bytes32",
          "name": "certificateID",
          "type": "bytes32"
        }
      ],
      "name": "isCertificateOwner",
      "outputs": [
        {
          "internalType": "bool",
          "name": "",
          "type": "bool"
        }
      ],
      "stateMutability": "view",
      "type": "function"
    },
    {
      "inputs": [
        {
          "internalType": "address",
          "name": "_recipientAddress",
          "type": "address"
        },
        {
          "internalType": "string",
          "name": "_recipientName",
          "type": "string"
        },
        {
          "internalType": "string",
          "name": "_issuer",
          "type": "string"
        },
        {
          "internalType": "string",
          "name": "_courseName",
          "type": "string"
        },
        {
          "internalType": "uint256",
          "name": "_issueDate",
          "type": "uint256"
        },
        {
          "internalType": "uint256",
          "name": "_expiryDate",
          "type": "uint256"
        }
      ],
      "name": "issueCertificate",
      "outputs": [],
      "stateMutability": "nonpayable",
      "type": "function"
    },
    {
      "inputs": [],
      "name": "owner",
      "outputs": [
        {
          "internalType": "address",
          "name": "",
          "type": "address"
        }
      ],
      "stateMutability": "view",
      "type": "function"
    },
    {
      "inputs": [
        {
          "internalType": "address",
          "name": "issuer",
          "type": "address"
        }
      ],
      "name": "removeIssuer",
      "outputs": [],
      "stateMutability": "nonpayable",
      "type": "function"
    },
    {
      "inputs": [
        {
          "internalType": "bytes32",
          "name": "certificateID",
          "type": "bytes32"
        }
      ],
      "name": "revokeCertificate",
      "outputs": [],
      "stateMutability": "nonpayable",
      "type": "function"
    },
    {
      "inputs": [
        {
          "internalType": "bytes32",
          "name": "certificateID",
          "type": "bytes32"
        }
      ],
      "name": "verifyCertificate",
      "outputs": [
        {
          "internalType": "bytes32",
          "name": "",
          "type": "bytes32"
        },
        {
          "internalType": "address",
          "name": "",
          "type": "address"
        },
        {
          "internalType": "address",
          "name": "",
          "type": "address"
        },
        {
          "internalType": "string",
          "name": "",
          "type": "string"
        },
        {
          "internalType": "string",
          "name": "",
          "type": "string"
        },
        {
          "internalType": "string",
          "name": "",
          "type": "string"
        },
        {
          "internalType": "uint256",
          "name": "",
          "type": "uint256"
        },
        {
          "internalType": "uint256",
          "name": "",
          "type": "uint256"
        },
        {
          "internalType": "bool",
          "name": "",
          "type": "bool"
        }
      ],
      "stateMutability": "view",
      "type": "function"
    }
  ],
  "bytecode": "0x6080604052348015600f57600080fd5b50336000806101000a81548173ffffffffffffffffffffffffffffffffffffffff021916908373ffffffffffffffffffffffffffffffffffffffff1602179055506001600260003373ffffffffffffffffffffffffffffffffffffffff1673ffffffffffffffffffffffffffffffffffffffff16815260200190815260200160002060006101000a81548160ff021916908315150217905550611e13806100b76000396000f3fe608060405234801561001057600080fd5b50600436106100935760003560e01c8063850c176811610066578063850c1768146101245780638da5cb5b1461015c5780639b6f0d561461017a578063c6cbc52a146101aa578063f731fa0f146101c657610093565b806320694db01461009857806347bc7093146100b45780636006ce81146100d0578063742f0688146100ec575b600080fd5b6100b260048036038101906100ad9190611137565b6101f6565b005b6100ce60048036038101906100c99190611137565b610322565b005b6100ea60048036038101906100e591906112e0565b61044e565b005b610106600480360381019061010191906113f7565b61079a565b60405161011b999897969594939291906114eb565b60405180910390f35b61013e600480360381019061013991906113f7565b6109cd565b604051610153999897969594939291906114eb565b60405180910390f35b610164610dc9565b604051610171919061158d565b60405180910390f35b610194600480360381019061018f91906113f7565b610ded565b6040516101a191906115a8565b60405180910390f35b6101c460048036038101906101bf91906113f7565b610eb3565b005b6101e060048036038101906101db9190611137565b6110a5565b6040516101ed91906115a8565b60405180910390f35b60008054906101000a900473ffffffffffffffffffffffffffffffffffffffff1673ffffffffffffffffffffffffffffffffffffffff163373ffffffffffffffffffffffffffffffffffffffff1614610284576040517f08c379a000000000000000000000000000000000000000000000000000000000815260040161027b9061160f565b60405180910390fd5b6001600260008373ffffffffffffffffffffffffffffffffffffffff1673ffffffffffffffffffffffffffffffffffffffff16815260200190815260200160002060006101000a81548160ff0219169083151502179055508073ffffffffffffffffffffffffffffffffffffffff167f05e7c881d716bee8cb7ed92293133ba156704252439e5c502c277448f04e20c260405160405180910390a250565b60008054906101000a900473ffffffffffffffffffffffffffffffffffffffff1673ffffffffffffffffffffffffffffffffffffffff163373ffffffffffffffffffffffffffffffffffffffff16146103b0576040517f08c379a00000000000000000000000000000000000000000000000000000000081526004016103a79061160f565b60405180910390fd5b6000600260008373ffffffffffffffffffffffffffffffffffffffff1673ffffffffffffffffffffffffffffffffffffffff16815260200190815260200160002060006101000a81548160ff0219169083151502179055508073ffffffffffffffffffffffffffffffffffffffff167faf66545c919a3be306ee446d8f42a9558b5b022620df880517bc9593ec0f2d5260405160405180910390a250565b600260003373ffffffffffffffffffffffffffffffffffffffff1673ffffffffffffffffffffffffffffffffffffffff16815260200190815260200160002060009054906101000a900460ff166104da576040517f08c379a00000000000000000000000000000000000000000000000000000000081526004016104d19061167b565b60405180910390fd5b6000338787878787876040516020016104f99796959493929190611740565b604051602081830303815290604052805190602001209050600060016000838152602001908152602001600020600601541461056a576040517f08c379a000000000000000000000000000000000000000000000000000000000815260040161056190611801565b60405180910390fd5b6040518061012001604052808281526020013373ffffffffffffffffffffffffffffffffffffffff1681526020018873ffffffffffffffffffffffffffffffffffffffff16815260200187815260200186815260200185815260200184815260200183815260200160011515815250600160008381526020019081526020016000206000820151816000015560208201518160010160006101000a81548173ffffffffffffffffffffffffffffffffffffffff021916908373ffffffffffffffffffffffffffffffffffffffff16021790555060408201518160020160006101000a81548173ffffffffffffffffffffffffffffffffffffffff021916908373ffffffffffffffffffffffffffffffffffffffff16021790555060608201518160030190816106999190611a2d565b5060808201518160040190816106af9190611a2d565b5060a08201518160050190816106c59190611a2d565b5060c0820151816006015560e082015181600701556101008201518160080160006101000a81548160ff0219169083151502179055509050508673ffffffffffffffffffffffffffffffffffffffff163373ffffffffffffffffffffffffffffffffffffffff16827f8bea0dc63ec47a195a28675e96c0a8093691a3736f8887e4bdbfce4215014e868989898989600160008b815260200190815260200160002060080160009054906101000a900460ff1660405161078996959493929190611aff565b60405180910390a450505050505050565b60016020528060005260406000206000915090508060000154908060010160009054906101000a900473ffffffffffffffffffffffffffffffffffffffff16908060020160009054906101000a900473ffffffffffffffffffffffffffffffffffffffff169080600301805461080f90611850565b80601f016020809104026020016040519081016040528092919081815260200182805461083b90611850565b80156108885780601f1061085d57610100808354040283529160200191610888565b820191906000526020600020905b81548152906001019060200180831161086b57829003601f168201915b50505050509080600401805461089d90611850565b80601f01602080910402602001604051908101604052809291908181526020018280546108c990611850565b80156109165780601f106108eb57610100808354040283529160200191610916565b820191906000526020600020905b8154815290600101906020018083116108f957829003601f168201915b50505050509080600501805461092b90611850565b80601f016020809104026020016040519081016040528092919081815260200182805461095790611850565b80156109a45780601f10610979576101008083540402835291602001916109a4565b820191906000526020600020905b81548152906001019060200180831161098757829003601f168201915b5050505050908060060154908060070154908060080160009054906101000a900460ff16905089565b60008060006060806060600080600080600160008c815260200190815260200160002060405180610120016040529081600082015481526020016001820160009054906101000a900473ffffffffffffffffffffffffffffffffffffffff1673ffffffffffffffffffffffffffffffffffffffff1673ffffffffffffffffffffffffffffffffffffffff1681526020016002820160009054906101000a900473ffffffffffffffffffffffffffffffffffffffff1673ffffffffffffffffffffffffffffffffffffffff1673ffffffffffffffffffffffffffffffffffffffff168152602001600382018054610ac290611850565b80601f0160208091040260200160405190810160405280929190818152602001828054610aee90611850565b8015610b3b5780601f10610b1057610100808354040283529160200191610b3b565b820191906000526020600020905b815481529060010190602001808311610b1e57829003601f168201915b50505050508152602001600482018054610b5490611850565b80601f0160208091040260200160405190810160405280929190818152602001828054610b8090611850565b8015610bcd5780601f10610ba257610100808354040283529160200191610bcd565b820191906000526020600020905b815481529060010190602001808311610bb057829003601f168201915b50505050508152602001600582018054610be690611850565b80601f0160208091040260200160405190810160405280929190818152602001828054610c1290611850565b8015610c5f5780601f10610c3457610100808354040283529160200191610c5f565b820191906000526020600020905b815481529060010190602001808311610c4257829003601f168201915b5050505050815260200160068201548152602001600782015481526020016008820160009054906101000a900460ff161515151581525050905060008160c0015103610ce0576040517f08c379a0000000000000000000000000000000000000000000000000000000008152600401610cd790611bc1565b60405180910390fd5b60008160e001511480610cf757508060e001514211155b610d36576040517f08c379a0000000000000000000000000000000000000000000000000000000008152600401610d2d90611c2d565b60405180910390fd5b806101000151610d7b576040517f08c379a0000000000000000000000000000000000000000000000000000000008152600401610d7290611c99565b60405180910390fd5b806000015181602001518260400151836060015184608001518560a001518660c001518760e00151886101000151995099509950995099509950995099509950509193959799909294969850565b60008054906101000a900473ffffffffffffffffffffffffffffffffffffffff1681565b600080600160008481526020019081526020016000206006015403610e47576040517f08c379a0000000000000000000000000000000000000000000000000000000008152600401610e3e90611bc1565b60405180910390fd5b3373ffffffffffffffffffffffffffffffffffffffff166001600084815260200190815260200160002060020160009054906101000a900473ffffffffffffffffffffffffffffffffffffffff1673ffffffffffffffffffffffffffffffffffffffff16149050919050565b600260003373ffffffffffffffffffffffffffffffffffffffff1673ffffffffffffffffffffffffffffffffffffffff16815260200190815260200160002060009054906101000a900460ff16610f3f576040517f08c379a0000000000000000000000000000000000000000000000000000000008152600401610f369061167b565b60405180910390fd5b6001600082815260200190815260200160002060080160009054906101000a900460ff16610fa2576040517f08c379a0000000000000000000000000000000000000000000000000000000008152600401610f9990611d2b565b60405180910390fd5b3373ffffffffffffffffffffffffffffffffffffffff166001600083815260200190815260200160002060010160009054906101000a900473ffffffffffffffffffffffffffffffffffffffff1673ffffffffffffffffffffffffffffffffffffffff1614611046576040517f08c379a000000000000000000000000000000000000000000000000000000000815260040161103d90611dbd565b60405180910390fd5b60006001600083815260200190815260200160002060080160006101000a81548160ff021916908315150217905550807f44d80a438cb4fa3b5aedbe551ce3d9382e37f446917b783e1dee70a03b4180e360405160405180910390a250565b60026020528060005260406000206000915054906101000a900460ff1681565b6000604051905090565b600080fd5b600080fd5b600073ffffffffffffffffffffffffffffffffffffffff82169050919050565b6000611104826110d9565b9050919050565b611114816110f9565b811461111f57600080fd5b50565b6000813590506111318161110b565b92915050565b60006020828403121561114d5761114c6110cf565b5b600061115b84828501611122565b91505092915050565b600080fd5b600080fd5b6000601f19601f8301169050919050565b7f4e487b7100000000000000000000000000000000000000000000000000000000600052604160045260246000fd5b6111b78261116e565b810181811067ffffffffffffffff821117156111d6576111d561117f565b5b80604052505050565b60006111e96110c5565b90506111f582826111ae565b919050565b600067ffffffffffffffff8211156112155761121461117f565b5b61121e8261116e565b9050602081019050919050565b82818337600083830152505050565b600061124d611248846111fa565b6111df565b90508281526020810184848401111561126957611268611169565b5b61127484828561122b565b509392505050565b600082601f83011261129157611290611164565b5b81356112a184826020860161123a565b91505092915050565b6000819050919050565b6112bd816112aa565b81146112c857600080fd5b50565b6000813590506112da816112b4565b92915050565b60008060008060008060c087890312156112fd576112fc6110cf565b5b600061130b89828a01611122565b965050602087013567ffffffffffffffff81111561132c5761132b6110d4565b5b61133889828a0161127c565b955050604087013567ffffffffffffffff811115611359576113586110d4565b5b61136589828a0161127c565b945050606087013567ffffffffffffffff811115611386576113856110d4565b5b61139289828a0161127c565b93505060806113a389828a016112cb565b92505060a06113b489828a016112cb565b9150509295509295509295565b6000819050919050565b6113d4816113c1565b81146113df57600080fd5b50565b6000813590506113f1816113cb565b92915050565b60006020828403121561140d5761140c6110cf565b5b600061141b848285016113e2565b91505092915050565b61142d816113c1565b82525050565b61143c816110f9565b82525050565b600081519050919050565b600082825260208201905092915050565b60005b8381101561147c578082015181840152602081019050611461565b60008484015250505050565b600061149382611442565b61149d818561144d565b93506114ad81856020860161145e565b6114b68161116e565b840191505092915050565b6114ca816112aa565b82525050565b60008115159050919050565b6114e5816114d0565b82525050565b600061012082019050611501600083018c611424565b61150e602083018b611433565b61151b604083018a611433565b818103606083015261152d8189611488565b905081810360808301526115418188611488565b905081810360a08301526115558187611488565b905061156460c08301866114c1565b61157160e08301856114c1565b61157f6101008301846114dc565b9a9950505050505050505050565b60006020820190506115a26000830184611433565b92915050565b60006020820190506115bd60008301846114dc565b92915050565b7f4e6f7420636f6e7472616374206f776e65720000000000000000000000000000600082015250565b60006115f960128361144d565b9150611604826115c3565b602082019050919050565b60006020820190508181036000830152611628816115ec565b9050919050565b7f4e6f7420616e20617574686f72697a6564206973737565720000000000000000600082015250565b600061166560188361144d565b91506116708261162f565b602082019050919050565b6000602082019050818103600083015261169481611658565b9050919050565b60008160601b9050919050565b60006116b38261169b565b9050919050565b60006116c5826116a8565b9050919050565b6116dd6116d8826110f9565b6116ba565b82525050565b600081905092915050565b60006116f982611442565b61170381856116e3565b935061171381856020860161145e565b80840191505092915050565b6000819050919050565b61173a611735826112aa565b61171f565b82525050565b600061174c828a6116cc565b60148201915061175c82896116cc565b60148201915061176c82886116ee565b915061177882876116ee565b915061178482866116ee565b91506117908285611729565b6020820191506117a08284611729565b60208201915081905098975050505050505050565b7f436572746966696361746520616c726561647920657869737473000000000000600082015250565b60006117eb601a8361144d565b91506117f6826117b5565b602082019050919050565b6000602082019050818103600083015261181a816117de565b9050919050565b7f4e487b7100000000000000000000000000000000000000000000000000000000600052602260045260246000fd5b6000600282049050600182168061186857607f821691505b60208210810361187b5761187a611821565b5b50919050565b60008190508160005260206000209050919050565b60006020601f8301049050919050565b600082821b905092915050565b6000600883026118e37fffffffffffffffffffffffffffffffffffffffffffffffffffffffffffffffff826118a6565b6118ed86836118a6565b95508019841693508086168417925050509392505050565b6000819050919050565b600061192a611925611920846112aa565b611905565b6112aa565b9050919050565b6000819050919050565b6119448361190f565b61195861195082611931565b8484546118b3565b825550505050565b600090565b61196d611960565b61197881848461193b565b505050565b5b8181101561199c57611991600082611965565b60018101905061197e565b5050565b601f8211156119e1576119b281611881565b6119bb84611896565b810160208510156119ca578190505b6119de6119d685611896565b83018261197d565b50505b505050565b600082821c905092915050565b6000611a04600019846008026119e6565b1980831691505092915050565b6000611a1d83836119f3565b9150826002028217905092915050565b611a3682611442565b67ffffffffffffffff811115611a4f57611a4e61117f565b5b611a598254611850565b611a648282856119a0565b600060209050601f831160018114611a975760008415611a85578287015190505b611a8f8582611a11565b865550611af7565b601f198416611aa586611881565b60005b82811015611acd57848901518255600182019150602085019450602081019050611aa8565b86831015611aea5784890151611ae6601f8916826119f3565b8355505b6001600288020188555050505b505050505050565b600060c0820190508181036000830152611b198189611488565b90508181036020830152611b2d8188611488565b90508181036040830152611b418187611488565b9050611b5060608301866114c1565b611b5d60808301856114c1565b611b6a60a08301846114dc565b979650505050505050565b7f436572746966696361746520646f6573206e6f74206578697374000000000000600082015250565b6000611bab601a8361144d565b9150611bb682611b75565b602082019050919050565b60006020820190508181036000830152611bda81611b9e565b9050919050565b7f4365727469666963617465206861732065787069726564000000000000000000600082015250565b6000611c1760178361144d565b9150611c2282611be1565b602082019050919050565b60006020820190508181036000830152611c4681611c0a565b9050919050565b7f4365727469666963617465206973207265766f6b656400000000000000000000600082015250565b6000611c8360168361144d565b9150611c8e82611c4d565b602082019050919050565b60006020820190508181036000830152611cb281611c76565b9050919050565b7f436572746966696361746520697320616c7265616479207265766f6b6564206f60008201527f7220646f6573206e6f7420657869737400000000000000000000000000000000602082015250565b6000611d1560308361144d565b9150611d2082611cb9565b604082019050919050565b60006020820190508181036000830152611d4481611d08565b9050919050565b7f4f6e6c7920746865206973737565722063616e207265766f6b6520746869732060008201527f6365727469666963617465000000000000000000000000000000000000000000602082015250565b6000611da7602b8361144d565b9150611db282611d4b565b604082019050919050565b60006020820190508181036000830152611dd681611d9a565b905091905056fea2646970667358221220003e526f5f9d13518784502a30ff25e30db265a551327a2a251fc0627045624a64736f6c634300081c0033",
  "linkReferences": {},
  "deployedLinkReferences": {}
}